:020000040000FA
:100000003892012089060200F3940500750602006B
:1000100075060200750602007506020075060200EC
:100020000000000000000000000000003D08020089
:10003000750602000000000091070200750602002C
:10004000490A0200490A0200490A0200490A02005C
:10005000490A0200490A0200490A0200490A02004C
:10006000490A0200490A0200490A0200490A02003C
:10007000490A0200490A0200490A0200490A02002C
:10025000490A020071500600490A0200490A0200D8
:10026000490A0200490A02005B500600490A0200DE
:10027000490A0200490A0200490A0200490A02002A
:10028000490A0200490A0200490A0200490A02001A
:10029000490A0200490A0200490A0200490A02000A
:1002A000490A0200490A0200490A0200490A0200FA
:1002B000490A0200490A0200490A0200490A0200EA
:1002C000490A0200490A0200490A0200490A0200DA
:1002D000490A0200490A0200490A0200490A0200CA
:1002E000490A0200490A0200490A0200490A0200BA
:1002F000490A0200490A0200490A0200490A0200AA
:10030000490A0200490A0200490A0200490A020099
:10031000490A0200490A0200490A0200490A020089
:10032000490A0200490A0200490A0200490A020079
:10033000490A0200490A0200490A0200490A020069
:10034000490A0200490A0200490A0200490A020059
:10035000490A0200490A0200490A0200490A020049
:10036000490A0200490A0200490A0200490A020039
:10037000490A0200490A0200490A0200490A020029
:10038000490A0200490A0200490A0200490A020019
:10039000490A0200490A0200490A0200490A020009
:1003A000490A0200490A0200490A0200490A0200F9
:1003B000490A0200490A0200490A0200490A0200E9
:1003C000490A0200490A0200490A0200490A0200D9
:1003D000490A020045500600490A0200490A020083
:1003E000490A0200490A0200490A0200490A0200B9
:1003F000490A0200490A0200490A0200490A0200A9
:10040000490A0200490A0200490A0200490A020098
:10041000490A0200490A0200490A0200490A020088
:10042000490A0200490A0200490A0200490A020078
:10043000490A0200490A0200490A0200490A020068
:10044000490A0200490A0200490A0200490A020058
:10045000490A0200490A0200490A0200490A020048
:10046000490A0200490A0200490A0200490A020038
:10047000490A0200490A0200490A0200490A020028
:10048000490A0200490A0200490A0200490A020018
:10049000490A0200490A0200490A0200490A020008
:1004A000490A0200490A0200490A0200490A0200F8
:1004B000490A0200490A0200490A0200490A0200E8
:1004C000490A0200490A0200054B00221B7882609B
:1004D00001330260034A4260C371FF230372704715
:1004E000B819002080010800064A074B02604FF44B
:1004F00024729B7882800822C37100238271037268
:10050000704700BFC7960100B8190020064A074B84
:1005100002604FF44072DB7882800822C3710023AE
:1005200082710372704700BF31940100B819002036
:10053000064A074B02604FF4C472DB7A82800822BD
:10054000C371FF2382710372704700BF0F8F0100D8
:10055000B81900202DE9F341C41D0028064624F0F7
:1005600007040CBF0020204600F0B4FC071E04DA8C
:100570006FF00B0002B0BDE8F081374DE988A88824
:1005800003316B7A03302A7A89B280B214F051F8C1
:100590000028EDDB3C44A978EB78002E04F103043D
:1005A000194424F0030400FB01F10CBF0020204695
:1005B00000F020FE20440EB90028D9DBEA7A044678
:1005C000B2B1EB7B697C13441944FF29D0D80330C6
:1005D000002EAA89C9B220F003040CBF00202046D7
:1005E00000F07AFE0028C3DB04440EB9002CBFDB08
:1005F000012000F065FCB0B1A97BA1B195F82B30CA
:1006000033B340234FF481720734002E24F00704E3
:100610000CBF0020204604F051F80028A8DB044459
:100620000EB9002CA4DBAB7AFBB1EB7AB3B1073483
:10063000002EA97A24F007040CBF0020204608F001
:10064000B3FD002894DB04447EB9002C0DDA8FE75B
:1006500025232822D8E700BFB8190020012000F088
:100660002FFC10B1AB7B002BE1D1734B1B6893B116
:10067000A97D81B10334002EEA7D24F003040CBF70
:100680000020204698470028FFF672AF044416B9B0
:10069000002CFFF66DAF694B1B688BB1297C79B1DB
:1006A0000334002E24F003040CBF0020204698479A
:1006B0000028FFF65DAF044416B9002CFFF658AFD2
:1006C0005F4B1F68B7B1697CA1B10334002E2B7D4D
:1006D00024F0030408BF0020009318BF2046EB7CE1
:1006E000AA7CB8470028FFF643AF044416B9002C93
:1006F000FFF63EAF072000F0E3FB98B1A97D89B17A
:100700000334002E2A7E24F003040CBF0020204670
:1007100000F0D0FE0028FFF62BAF044416B9002CE1
:10072000FFF626AFB6FA86F795F823007F09A0B149
:1007300003346B7FA97E24F0070419443B4644F040
:100740000404C9B2224600F0F5FE0028FFF610AFFF
:10075000044416B9002CFFF60BAF95F824100029BD
:100760004CD004F10708002EEA8C28F007080CBFD3
:100770000020404613F071FF041EFFF6F9AE44441A
:10078000002E3ED1002CFFF6F3AEA97F002945D004
:1007900095F82230002B41D02A8C0734002E02F12C
:1007A000240224F007080CBF0020404692B213F048
:1007B00054FF0028FFF6DCAE404416B90028FFF6CF
:1007C000D7AE03302B7FA97E20F0070019443B46AB
:1007D00040F0040495F82200C9B2224600F09CFEC5
:1007E0000028FFF6C5AE044486B9002CFFF6C0AE63
:1007F000EB6AF3B1C6B1EC620020BBE6002EC4D0B8
:100800008846E98C404610F09DF8BEE72A8C4046A9
:10081000A97F083292B210F09BF8E9E7002EE7D0EA
:10082000002211461046F6E728343FF5A1AE2046D7
:10083000A0E6002EE0D1FAE7B4270020B827002078
:10084000BC2700201FB572B6194B1C6BECB9BFF367
:100850004F8F1849184BCA6802F4E0621343CB600B
:10086000BFF34F8F00BFFDE7B2FBF6F22B465D1CD6
:10087000002AF9D1DBB203F110056D4405F80C2C08
:100880000A2233B901A8A047E1E7024600230A265D
:10089000EDE7013BDBB203F110050DEB0506B0FB04
:1008A000F2F502FB1500303006F80C0C2846E8E79C
:1008B000B819002000ED00E00400FA0513B5124C51
:1008C00068462389ADF80030E388ADF80430A3888A
:1008D000ADF8023006F0A8FB18B1FC219C20FFF710
:1008E000B1FF207D06F004FC08B1FF21F6E7E07CB3
:1008F00006F0F8FB10B14FF48071EFE794F829008F
:100900000EF05EFC02B010BDB819002070B50546AF
:10091000002858D012F01AFA18B94FF0FF342046C8
:1009200070BD10F04DFDB0F5FA7FF6D8274C0126CA
:1009300025630025284684F83450257084F82B5010
:10094000E56284F82A500FF09FFF1A22294604F12D
:100950000F0019F0D5FC1B2308210322A380284691
:10096000E3800223A1721F216372E375F7232272D1
:100970002384FB23A2734922E3840A23A18129460D
:10098000E27484F82930A670E670E672A6742676C2
:1009900004F026FE2A463146304604F0DDFD0446CA
:1009A00020B140F2B7319C20FFF74CFF02460146D0
:1009B00004F000FEEFF3108572B600F0E1FD002DAB
:1009C000ADD162B6ABE76FF01504A8E7B819002007
:1009D00038B51446002840F0EE80784D95F8343054
:1009E000032B00F0E58019B312B96FF0150038BD84
:1009F0000139172900F2DF80DFE811F01800290023
:100A00002C0042006C0075009400480078007B00C8
:100A10008E004E005400620067009A009D00AC00FA
:100A2000AF00B200A300B500B900D2001378AB70DC
:100A30000020FFF78FFD0028B7BF012302236FF0CE
:100A40000B0085F83430A8BF85F83430CFE7137831
:100A5000EB70EDE71379002BC7D05379002BC4D08E
:100A60001288FB2AC1D863881B3B9BB2E02BBCD801
:100A70001A2ABAD92368A2886B60514B9A80D7E7AB
:100A80001378EA7B9342B0D3EB72D1E71378EA7A1A
:100A90009342AAD8EB73CBE71378EA7A9342A4D8AF
:100AA0006B74C5E71378002B9FD05378013BDBB202
:100AB000F82B9AD8138892786B82424B9A70B7E7DA
:100AC000107868750EF028FBB2E71378002B8CD0F5
:100AD0002B76ADE7012000F0F3F9237808B1012B64
:100AE00083D9AB73A4E71388AB81A1E71378AB7507
:100AF0009EE7072000F0E4F918B92378012B7FF670
:100B000074AF072000F0DCF918B12378002B3FF414
:100B10006CAF2378EB758BE71378082B3FF665AF46
:100B20002B7485E71388FF2B3FF65FAFAB727FE72F
:100B300013786B767CE713780E2B3FF656AFAB76C7
:100B400076E72368204AC5F81E306368536023891E
:100B500013816DE71378EB766AE713786B7767E7B5
:100B600013782B7764E7137885F8283060E704F072
:100B7000EDFC98B1007900F001026178207804F072
:100B8000EBFC00287FF433AF6378012B7FF650AF86
:100B90000FF080FE00287FF44BAF26E70246ECE71B
:100BA00013785A1E092A3FF620AF85F829303FE70F
:100BB0004FF0FF301BE76FF02C0018E7B81900204A
:100BC000BC190020CA190020D6190020F8B50D461E
:100BD000064630B329B311F0070422D1124F97F81B
:100BE0003430012B02D16FF00B00F8BD032B02D182
:100BF0004FF0FF30F9E700F079F80028F8D02846E8
:100C0000FFF7A8FC0028EEDB18F037FE3046F96A43
:100C100006F006FBFFF752FE0323204687F8343028
:100C2000E3E76FF01500E0E7B819002010B5074CB6
:100C300094F83430032B03D106F00AFB07F00EFAC8
:100C400013F057FE002084F8340010BDB8190020BE
:100C500050B1074B03F1140253F8041B934240F8C0
:100C6000041BF9D1002070476FF01500704700BFDA
:100C70004732080008B506F075FA03490320BDE8BD
:100C8000084000F015B900BF3105000008B506F0B6
:100C900083FA03490220BDE8084000F009B900BF0B
:100CA0000D05000008B506F099FA0649012000F08C
:100CB000FFF80549002000F0FBF8044B012283F8FF
:100CC0002B2008BDC9040000E9040000B819002069
:100CD00002680020014B1A60704700BFF019002025
:100CE000014B1B68184700BFF0190020024B186821
:100CF000003818BF01207047F0190020074B4FF053
:100D0000FF3141F6FF72C3E9001205490022C1E933
:100D100000221F21C3E90212704700BF60000020BB
:100D2000F41900203F280CD801380B4BC0F34212B5
:100D300000F01F0053F8223023FA00F000F0010009
:100D40007047FF2806D04038044BC0F3421200F031
:100D50001F00EFE70120704760000020F419002019
:100D6000074B0146006849681A4603C240F48C22CA
:100D700000201A6041F0107242F4FF625A6070471E
:100D8000600000200246034B0068516803C3002046
:100D9000704700BFF41900200246034B00685168F9
:100DA00003C30020704700BF6800002008B5382842
:100DB00000F1FF33DBB205D106F0B8FA4078C0F39A
:100DC000C00008BD5909054A03F01F0302EB810268
:100DD0009068D84000F00100F3E700BF60000020F9
:100DE0000A8870B595B2C67CC2F30E02048802363A
:100DF00002F118033444C35AA4B233442344013BE0
:100E0000B3FBF4F303FB0422438892B29342044BF6
:100E10008BBF2B40AB4313439BB20B8070BD00BF15
:100E20000080FFFF4A1E062A08B50346084604D87C
:100E30004FF4D1711520FFF705FD094A914202D9FF
:100E400040F2A311F6E711B903B1196008BD2BB147
:100E50001B680022C3E901211A1D1A600430F5E75E
:100E6000FAFFFF7F10B5114B00EB41041A7863893C
:100E7000B3FBF2F303FB0223013A1A44B2F5706F9D
:100E80000279807828BF00231A440B18B2FBF0F1D6
:100E900000FB11215B1AB3FBF0F100FB113313448B
:100EA0006FEA43436FEA5343638110BDFC1900208E
:100EB000024B03EB80035960704700BFFC19002010
:100EC000034B03EB80035868003818BF01207047BC
:100ED000FC1900202DE9F04F10F0070A85B00546F7
:100EE00004D040F26F111720FFF7ACFC534F0446BB
:100EF0004FF0010B07F15406B146B04657F8043BDA
:100F00008DF80BA03BB101A898479DF80A30082B3B
:100F100001D9F521E7E79DF80B1041BB05B1316020
:100F20004F4506F10406E9D1002D6FD00022DFF80D
:100F300010911427964689F8002058F827A0013F01
:100F4000BAF1000F55D09AF804609AF802C0FF2E4B
:100F500060D039460023481C38D19C44BCF1FF0FB7
:100F60003FD90AB189F800E04FF49A71BBE79DF8C8
:100F70000AC04B1D60465A0004EB4303022838BFE9
:100F80000220441E40422344BDF808406444CCF192
:100F9000000C0340013C04EA0C04B4F5803F02D38A
:100FA00040F205119FE775B19A1A32609170148072
:100FB00082F803B09DF80C00107101984FEA104CB4
:100FC0001081A2F806C004FB0134A9E758F82100FB
:100FD00028B190F804B0B34504BF80781B180139DC
:100FE000B9E7DBB2E6458AF804303CBF5FFA8CFE15
:100FF00001227B1CA1D10AB189F800E0142640F639
:10100000FF6A58F82670B7B9013EFAD2601B05B0E6
:10101000BDE8F08F0023E5E707EB410309F1010983
:101020003846A3F80AA0FFF71DFF5FFA89F1BB78E5
:101030008B42F1D8E8E74FF00009F6E7001A0020EC
:10104000FC190020034B03EB8003986D00B18078FE
:10105000704700BFFC19002038B54FF6FF730246F9
:101060000380184B03EB8103986DA8B18478037952
:10107000B3FBF4F104FB1133DBB2194600EB41057D
:10108000B5F90A50002D0EDB0131B1FBF4F504FB7C
:101090001511C9B28B42F1D1002038BD6381BDE882
:1010A000384013F0A2BA00EB41046389C3F30E0386
:1010B0001380C278002AF1D14FF4E5711720FFF7B1
:1010C000C1FB00BFFC1900201C4B03EB810370B572
:1010D0009C6D054644B3030404D54FF4EC7117200E
:1010E000FFF7B0FB0146204613F062FAFF280146E5
:1010F00004D02046BDE8704013F077BAA078B5FB65
:10110000F0F300FB1353DBB219460A1D04EB420651
:10111000B6F90260002E09DB0131B1FBF0F200FBF1
:101120001211C9B28B42F0D1002070BD8B4201D0A8
:101130000023E37004EB42025580DAE7FC1900203B
:10114000094B03EB8103014610B59C6D204613F05B
:101150002FFAFF28014604D02046BDE8104013F0C6
:1011600044BA002010BD00BFFC190020F8B5104B98
:10117000074603EB810301469C6D204613F018FAE5
:10118000FF28054611D0E288238953EA024606D09B
:101190000146204613F029FA01463846B04720465A
:1011A0002946FFF75FFE0020F8BD0520FCE700BFE1
:1011B000FC19002038B50E4B0446827903EB8203FC
:1011C000986D08B9052038BD8278E1799142F9D24D
:1011D0004B1CE37100EB41035D89B3F90A30002B2E
:1011E000F3DBA58013F001FA20600020EBE700BFDD
:1011F000FC19002070B5044610F003000E4603D021
:101200004E211820FFF71EFBFFF70CFE054624B108
:10121000034831460460FFF705FE284670BD00BF55
:10122000A81A00202DE9F14FDFF870B01E460746DE
:101230000D46DBF8003090469DF828A09DF82C90D4
:101240001BB960211820FFF7FDFA524609214046DC
:1012500013F032F84A4684B20921304613F02CF8D4
:1012600081B2DBF80000214413F076F9386018B938
:10127000286001B0BDE8F08F04445346414609227E
:101280002C60386812F0DBFF4B4609223146286893
:1012900001B0BDE8F04F12F0D2BF00BFA81A002085
:1012A00070B50E46044613F01AF80546304613F0A2
:1012B00016F8044B2A1821461868BDE8704013F050
:1012C00070B900BFA81A0020024B186808B113F0CB
:1012D00037B97047A81A00201F2AF8B504461346EC
:1012E0000ED89200033222F00303B3F5803F2DD2D3
:1012F000184DACB1A00710D068210920FFF7A2FA61
:10130000FF2B4FEA420204D9FF339A42A8BF1A4684
:10131000E8E77C2AB8BF7C22E4E729706C602B8167
:1013200022F0030228230127120403FB01F06B685B
:101330000025120CEEB2B14200D8F8BD14B1261847
:101340001F705E60104401352833F3E74FF0FF3023
:10135000F3E700BFAC1A0020154A002170B55368AE
:101360001578C8B2854203D8BA210920FFF76AFA76
:101370001C461846013114F8286B0EB92346F0E7D5
:101380000021997001241289996103F126055C708E
:101390009208D96103F11E04596824F8022FA5426E
:1013A00043F8041F1144F8D100234361037070BD5A
:1013B000AC1A00200A4B1B89B3F5FF7F4FEA93005C
:1013C00006D25A089B1A9BB2984238BF18467047FB
:1013D000B3F5EE6F01D8FF22F4E740F27263F3E752
:1013E000AC1A00204B782DE9F04106460C4602F07D
:1013F000040702F0FB05E3B1A5BBFF23A3707B0844
:1014000004EB57073A7D032A02D1022D18BF01339E
:10141000E2180121117503F10C01002204EB830392
:1014200024F811205B68A27030463360B280BDE8BA
:10143000F081002DE1D1012301F11E028D612046D2
:101440004B7004F1260C1A4BCD611B8949689B082F
:1014500022F8023F944540F8041F1944F8D10023B4
:101460006361CAE7D1F8048014220021A0186170DA
:1014700018F046FF0E4B1B89B3F5FF7F0FD25A08B9
:101480009B1A9BB208EB0301C4F804802384A1607B
:101490006284C4F80C80A3842161E284ADE7B3F5D3
:1014A000EE6F4FF0FF02EBD940F27263EAE700BF44
:1014B000AC1A00202DE9F84305460C46F72005211B
:1014C000914612F0F9FE061E21DB1DB906FB04F061
:1014D000BDE8F88315F0030703D098211920FFF722
:1014E000B1F9DFF83080C8F81050A8F81460BBB22A
:1014F0009C42EBD9B8F814504B46D8F8100005229E
:10150000F72107FB0500013712F099FEEFE74FF0D6
:10151000FF30DDE7C01A002007B5CDE900230B46F8
:1015200003490246081D13F0BEF903B05DF804FB41
:10153000D81A002013B5064CCDE900230B4602460D
:1015400004F1080104F10C0013F0ADF902B010BD74
:10155000D81A002008B54B1E032B03D92321902055
:10156000FFF770F90028054A0CBF05230C2303EB95
:101570008103053323F00103137008BDE81A00202E
:10158000124B01224FF0FF3000215A60C3F80803CC
:10159000C3F80015C3F804255A6040F6FE72C3F87C
:1015A00008034FF48060C3F8001503F56033084961
:1015B000C3F80825C1F88800BFF34F8FBFF36F8FC2
:1015C000C1F88801C3F80825704700BF00A0045087
:1015D00000E100E00A4606483D2302F8033BC368E9
:1015E000C1F803300369536043699360704700BFDB
:1015F000EC1A0020024B5A8C02435A845B6A18474B
:10160000EC1A0020014B00215B6A1847EC1A0020FD
:1016100070B5194C054694F828604EB1012807D1E1
:10162000638C1A0704D594F830300BB1012070BDDB
:101630000129FBD8636B284698470028F6D094F818
:1016400038000028F2D11EB9012D0BD03046EEE74C
:10165000002DECD1638C9B0704D594F8300080F00A
:101660000100E4E7608C0028E0D194F83930002BC9
:10167000DDD194F83A00F2E7EC1A002010B5154CD1
:101680000EF09EFB0FF0C2F8A08FFFF7BBFF237E8A
:1016900063B12246104904F1190052F80C3BE36093
:1016A00063685360A368936016F065FA0B4BA28FD2
:1016B00093E8030007F0E2FEE36A188807F02AFDCA
:1016C000236C94F8381094F83E009847002384F86F
:1016D000443010BDEC1A0020D5150000141B00206A
:1016E000034B93F844300BB1FFF7C8BF704700BFFE
:1016F000EC1A002070B5214C0646A36DE56AA36480
:101700004FF4817394F85C00A4F84C3095F8933052
:1017100095F8751000EB83002EB9FF2803D195F8DA
:1017200074308B4201D00EF0DFF995F89330FBB1A5
:10173000206E0EF02BFC216EA06C0EF0EDFF5EB95A
:1017400095F87530033B012B2B8F8CBF0020282090
:10175000184480B20EF07EFCA88E0EF051F995F878
:10176000741000200EF0BCFC022384F8443070BDDD
:10177000A06C0EF00BFC0FF049F8E0E7EC1A00202B
:10178000F0B591F8686087B00C4606BBCA8833464E
:10179000134F04F1800190F87500903497F82850A9
:1017A000013897F85C70003DC0B218BF01250328CE
:1017B00010D80596002604960A4E305CCDE90270DA
:1017C0000220CDE900540EF0C3FE07B0F0BDD1E910
:1017D0001E23DDE740F22C410620FFF733F800BF5F
:1017E000EC1A0020F74B07002DE9F041234C064688
:1017F0000F4694F84430012B5FFA83F804D040F68A
:101800002F012720FFF71EF8E56A95F8843053B1C1
:101810000021042085F88410FFF7ECFE94F82830AE
:101820000BB185F8858095F88830042B0DD11449CB
:101830000220FFF7DFFE94F8283033B1E36E1B7807
:101840009A1E5342534184F8303095F8933023B1B7
:1018500005F18001E06AFFF793FF1EB1BDE8F0419A
:10186000FFF70CBF002FF9D031463046FFF7D0FE0E
:101870000028F3D1BDE8F041FFF73CBFEC1A00208F
:10188000581B002008B5094B93F84420022A04D0C5
:1018900040F2E6212720FEF7D5FFDA7A42F0010276
:1018A000DA72BDE80840FFF7E9BE00BFEC1A00207D
:1018B000F7B5184C0646656F0DB1236D23B940F29C
:1018C000E7712720FEF7BEFFB4F8543001F00301A2
:1018D0002F466B702B7823F003030B4307F8033B71
:1018E0003846B4F85420216D11F088FB0DF1020246
:1018F00001A9A06FA564276512F018FE019812F0E7
:1019000003FE0122B4F854103060A06F12F0A7FD5E
:1019100003B0F0BDEC1A002070B591F8686086B095
:101920000C4606BBCA88334690F8740004F1800167
:10193000114D9034013895F82850C0B2B5FA85F5AC
:1019400003284FEA551511D80596002600950496F0
:101950000A4E305C0390FB20CDE9014004200EF0DC
:10196000F7FD06B070BDD1E91C23DDE740F22C4144
:101970000620FEF767FF00BFEC1A0020F74B0700B8
:101980002DE9F04FB94C85B0E76A97F8741058B953
:1019900097F8932094F85C3003EB8203FF2B03D17C
:1019A00097F875308B4202D0FF200EF09DF802A907
:1019B000AF4813F03BFF8346A0B3029A53786266A8
:1019C000A4F8703003B1D31CE36600251378C3F389
:1019D000001384F8393097F89230002B00F06B81B7
:1019E000B4F87030002B00F06681206E0EF0CEFA55
:1019F0002A46D4E918100EF0C9FC18B9D4E9180128
:101A00000EF020FEF88E0DF0FBFF97F87510012008
:101A10000EF066FB012384F8883084F8443005B06A
:101A2000BDE8F08FE66A8DF8050096F88830ADF8CD
:101A30000600052B00F20C81DFE813F006000D0113
:101A4000E100E100FA00FA0094F87F300DF10601A0
:101A500003A8A6F86430ADF8063005F0FDFD40B1EE
:101A6000039D35B1012384F88030042386F8883043
:101A7000DBE096F8CF30002B40F0A6800DF1050298
:101A80000DF10601D4F8840012F050FC0546002840
:101A900000F09A809DF805B0BBF1000F1FD0014601
:101AA000D4F8840012F02CFD12F02EFDD0F800A026
:101AB000D0F8049080465AEA09037ED1002388F8C2
:101AC000003088F8013088F8023088F8033088F850
:101AD000043088F8053088F8063088F80730BDF8FB
:101AE0000630002B78D1012386F8883001234FF08F
:101AF000000B84F88030BDF806306566A4F87030BD
:101B000003B1EB1C96F8888096F889A0B8F1020F13
:101B100096F88A90E36600F0A380A8F10408B8F173
:101B2000010F00F29B80BBF1000F00F0A5800025A3
:101B3000E36E1B781B2B40F0BB80012106F11000E7
:101B40000EF01AF84FF003080122616E4FEACA0A3C
:101B50004FEA89090B780AF0080A09F0040903F032
:101B6000F30343EA0A0343EA090323F0100343EAB9
:101B7000051323F0030348EA03030B70B4F8703035
:101B80004B700223606EA4F86830037823F02003C2
:101B900043EA4213037052B1E36A197C5B7C032968
:101BA00003F01F0308BF002143EA8113837005F08F
:101BB000010584F8395015460DE717F0E2FF82451C
:101BC00079EB0101BFF47AAF00230122294DADF872
:101BD000063086F8882090E79DF805301BB92B80E9
:101BE000AB70032380E72B7803F00303012BF8D0BD
:101BF000022386F88830002386F8953076E7B6F819
:101C000064300DF105020DF10601D4F88400ADF841
:101C1000063012F08BFB054620B940F20D5127200B
:101C2000FEF710FE012384F88030BDF8063064E72B
:101C30000DF1060103A805F00FFD08B1039D15B9CC
:101C400040F21C51EBE7012384F8803005230DE7B7
:101C500040F22651E3E7074D00234EE74FF001081D
:101C6000BBF1000F0ED000252A466EE7EC1A0020CB
:101C7000141B0020681B00201B78022B3FF457AF79
:101C80004FF00308D4F8840012F0A8FB50B9B8F163
:101C9000030F3FF44CAF05F0FBFC80F00105EDB203
:101CA000002252E7B8F1030F4FF00105F8D13FE7EA
:101CB0004FF00308F4E7606E0EF068F90EF0A6FD31
:101CC0002946606E17F015FE9CE600BF2DE9F04F27
:101CD0000023794C85B080468A46E56ACDE9003319
:101CE00094F84430022B04D04FF40C612720FEF707
:101CF000A9FDA26C51781378A4F8541003210A446A
:101D0000A4F84C10226503EA01028DF80820C3F301
:101D1000C0028DF80920C3F380028DF80A20C3F3B6
:101D20000012C3F340138DF80B208DF80C3095F89A
:101D30009330002800F06F81D3B10EF085FD831E33
:101D4000DBB2012B04D8FFF799FC05B0BDE8F08F9A
:101D500070B9B4F854305BB195F88A309DF8092019
:101D600003F001039A4203D1012384F83E30EAE7ED
:101D7000524A02A9A2F1280013F05AFD8346002816
:101D800049D1B4F8541011B1A06F12F048FBA38FE1
:101D90009DF80A1043F400736067A38795F88930B3
:101DA0000133DAB203F00103994236D0C146BBF1E8
:101DB000000F2DD195F88A309DF8092003F001031A
:101DC0009A4225D1B4F854609DF80830002E7BD09B
:101DD0005A1E012A78D8A38F95F8937043F4805344
:101DE000A3870DF023FE042894F8893006D1002F34
:101DF0000CBF1F221B22934228BF1346B4F8542065
:101E00009A424ED994F8383043F0100384F83830B1
:101E10000026374670E00020B9E795F888305BB3BC
:101E2000013B85F88920DBB2042B0FD8244A1344E8
:101E30001B79002BBAD0022B0BD16946D4F8840051
:101E400012F096FA88B940F2F7614FE740F2D66196
:101E50004CE7032B10D105F00DFC10B940F20171D5
:101E600044E700210820FFF7C5FBD5E93C320133E8
:101E700042F10002C5E93C32002194F8283085F88F
:101E800088103BB195F8853023B1102085F8851076
:101E9000FFF7B0FBA38F4FF0000943F40063A38763
:101EA00085E7636F002BB3D094F88A3053B12020BC
:101EB000FFF7A8FBACE700BFEC1A00203C1B00209A
:101EC000F74B07009DF8083095F88A20032B02F1A4
:101ED000010285F88A2000F093805A1E012A00F240
:101EE0008180002E94D000264746D5E93E3201334A
:101EF00042F10002C5E93E3295F8923023B105F176
:101F000080012846FFF708FDBBF1000F40F0AD80CF
:101F1000636F9DF80B20002B40F0A580B4F854307F
:101F2000B3FA83F35B09012A14BF002303F0010312
:101F300084F83A30BAF1000F00F099800EF0FAF808
:101F4000002F40F0A7800126A38F5A0606D4402018
:101F5000FFF758FBA38F43F04003A387B9F1000FAD
:101F600010D094F8283043B1B4F80720B4F8053005
:101F70001343B5F88620134304D0B4F80930013375
:101F8000A4F80930B8F1000F00F08A80B4F80530E9
:101F90000133A4F80530002384F88B30434807F060
:101FA000A7F8009830B112F0AFFA00220272294669
:101FB00006F076F9019B33B100221A720C222946F1
:101FC000019806F03BF9002E7FF4BDAEA38F1B06EF
:101FD0003FF5BBAE8020FFF715FBA38F43F08003D6
:101FE000A387B2E6002E3FF414AF002B7FF410AFAE
:101FF000D5E93E32013342F10002C5E93E3207E73E
:10200000A38F01202A4943F4805385F88400A387D5
:10201000FFF7F0FAECE70BB10EF030FC94F88B30E0
:10202000013384F88B30A38F43F48063A38795F842
:102030007530033B012B0DD80DF0F8FC04280DD1B1
:10204000B4F8546000271B2EBB46B94694BF002647
:10205000012651E706F0BCF90028EDD100263746ED
:10206000B346B14648E701235DE7002360E794F8F3
:102070008B100120FFF7CCFA00287FF45FAFFFF749
:102080007FFC002F3FF460AF9DF8081001A8FFF718
:102090000FFC59E79DF8081001A8FFF709FC52E76B
:1020A000B4F807300133A4F8073077E7141B002099
:1020B0003C1B0020064B10B593F8442002F0FF04AF
:1020C00022B91C7607F0D2F9204610BD0C24FBE79C
:1020D000EC1A0020094B0A4A10B51A60FFF7EAFF14
:1020E00020B14FF4A4712720FEF7ACFB054C05F09E
:1020F000CBF8A06505F0CCF8206610BDC027002005
:10210000A8230000EC1A00202DE9F341924C089F0F
:10211000CDE9000194F8441001F0FF0511B90AB1AE
:1021200003B127B94FF408712720FEF78BFBDDE9D7
:10213000000104F1280C63639DF82430626284F886
:102140008A30276484F8385084F88B5084F83E50E5
:1021500084F888506584A58784F8395084F83A500B
:1021600084F8805084F830508CE8030013F064FB4E
:102170006566E566A4F87050A5642565A4F854501A
:10218000E56A0DF01BFD0EF041FB95F97C0005F1B1
:1021900080070DF07BFDAE6A286A0DF07DFD3046AC
:1021A0000DF0D8FE95F8A4000DF080FDAB8E4E2BFF
:1021B00002D9EB8E4E2B01D80DF028FC94F8286044
:1021C000002E40F0898016F07BFB95F87420634B5D
:1021D0004FF47A7153F8223003F5FA73B3FBF1F33D
:1021E0004633191830460DF0D7FD5D4B18680DF0D9
:1021F000B7FE6B69E26AC4F88430AB6992F8746028
:10220000A36792F88D30A3F12A01012903D992F82E
:102210008E102A296BD194F82830002B64D192F8C3
:102220003A12304612F067FB064605F13C0831468B
:10223000404615F077FD314615F028F8B5F84830DE
:1022400095F87510834228BF0346404684F87F30D6
:1022500015F016FD95F8751095F893800429B5F8DA
:10226000506008BF032115F011F8B8F1000F01D13B
:10227000043080B2864228BF0646F6B284F88960F0
:1022800006F0A6F828B106F0A9F8864238BF06463F
:10229000F6B294F8283084F85C60002B4CD195F8A5
:1022A00092301BB139462846FFF736FB0120FFF775
:1022B00067FB002323606360A360B5F8863063800A
:1022C0002B88238095F8A4302371AB6F0BB10122CA
:1022D0001A6002B0BDE8F08116F0F2FA95F87520A8
:1022E00000F1650101207EE792F8CA1299E7253BCB
:1022F000012B10D8282910D094F82830C3B192F8B7
:1023000036315A0712D413F001018AD1C3F34003C6
:102310005B00D9B285E728290AD194F828303BB16F
:1023200092F8363192F86D201340EAE7042178E7FD
:10233000032E08BF042678E795F893301BB1394681
:102340002846FFF71DFA0120FFF7D4F9E36AD3F816
:10235000E0010DF04DFEACE7EC1A0020044F070041
:10236000C0270020014B93F888007047EC1A00202A
:10237000054A938F92F8800003F4805110B113F452
:10238000C06F00D1080B7047EC1A0020024B93F885
:102390003D00C0F3C0007047EC1A0020014B93F8D9
:1023A0008B007047EC1A002085180000CD1C00003F
:1023B000E9170000E11600000D4B0321186830B545
:1023C0000D4690F8A52090F84B400132B2FBF5F392
:1023D00003EB4303D31ADAB244FA03F3DB0703D463
:1023E000013911F0FF01F0D180F8A52030BD00BF08
:1023F000781B0020014B186812F04ABB781B0020A4
:1024000008B50CF0A1FE014B187008BD700000204B
:10241000064B10B41C68827C836804F1420194F876
:1024200041005DF8044B14F0ACBE00BF781B0020E7
:102430002DE9F041054617461E460C4619B1AB681A
:1024400053BB01201FE0DFF86080D8F8000000F1E6
:102450005B0390F85A2000F1780190F87E0014F0A8
:1024600090FED8F804305A79D8F80030082A04D001
:1024700093F84E40A21A5442544193F85630012B1F
:10248000DDD023B1002000F00100BDE8F08100287C
:10249000D5D1002CD3D1F5E7002FD2D1002EF1D029
:1024A0002846FFF7B5FFEEE7781B0020024B1868BF
:1024B0006C3002F06BB900BF781B002038B50F4CB0
:1024C000FFF7F4FF656802F01BF96368286018687D
:1024D00020B940F2F5413220FEF7B4F912F0BEFC0B
:1024E00010B940F2F741F6E70DF050FD00200DF075
:1024F000B1FD636804221A7138BD00BF781B00204B
:1025000038B5194D04466B681B79022B04D940F687
:1025100008113220FEF796F92B68027C83F8A4207C
:102520001A44C168996692F87C2183F87821426840
:10253000C3F88820037A022B0ED00DF03FFB0DF07C
:10254000B5FD0CF0B5FE09480DF00AFD08480DF088
:1025500001FD08480DF0A0FB637C23B12B685B6E86
:102560000BB101221A6038BD781B002088410000A1
:1025700055555500D6BE898E38B505460C4604F033
:10258000D9FE420704D4A37803F0E003402B30D0F7
:1025900004F0D0FE830704D4A37803F0E003202BDB
:1025A00027D0237803F03F03242B22D80DF044FAE0
:1025B00094F90030A278002B637802F01F02B4BFB8
:1025C0004FF496711E2143EA02234B431A1AB2F5C7
:1025D000877F0ED398420CD8074B2946186823886A
:1025E000A0F87931A37880F87B31BDE8384012F04B
:1025F0001BBF002038BD00BF781B002008B5074B6B
:1026000093F900207F2A04D140F29B313220FEF75B
:1026100019F902707F221A7008BD00BF70000020F7
:1026200010B504788EB004F00F0404A9224612F00D
:1026300054FCFFF7E5FE042C33D11B4C059A2368AC
:10264000107893F8781088422BD1507893F879104D
:10265000884226D1907893F87A10884221D1D07898
:1026600093F87B1088421CD1107993F87C10884233
:1026700017D1517993F87D20914212D19DF82120F4
:1026800093F87E309A420CD10DF10F00FFF7B6FFA0
:102690009DF90F3004A90093237B227A606812F021
:1026A000EFFB03200EB010BD781B00202DE9F04396
:1026B00087B0194C06460F460DF11700FFF79EFF35
:1026C00065682B79032B20D02B79062B14BF4FF094
:1026D00001094FF00309236803F142080DF0A6F940
:1026E0009DF917303A46CDF80C9031460293237A83
:1026F000CDE900034346284602F0CEF840B16068B9
:1027000007B0BDE8F04302F063B84FF00009E2E71C
:1027100007B0BDE8F08300BF781B00202DE9F0432F
:10272000304D87B004460F466E68B3798BB3D5F849
:10273000008098F8953033B90378002B14BF02233A
:10274000012388F895303379062BDAB225D0072A91
:102750000CBF4FF002094FF001090DF11700FFF710
:102760004DFF0DF063F99DF91730CDF80C903A4606
:10277000029321462B7ACDE9000308F1420330464B
:1027800002F08AF828B16378DB0609D4686802F0A1
:102790001FF8002007B0BDE8F0834FF00309DCE725
:1027A000A1690220FFF7E8FEB8B100222B6883F888
:1027B000962062696AB15178C1F3031183F89710CA
:1027C0001178527802F00F0241EA0222A3F8982011
:1027D000E0E7FF2283F89720DCE7686802F028F83A
:1027E000D7E700BF781B002010B504468AB0FFF77A
:1027F00007FE237803F00F03072B02D001200AB055
:1028000010BD6946204612F0FBFB684612F0A0FCA2
:102810009DF80030002BF1D19DF80130DB07EDD59C
:102820000C4C019922689DF8110002F1780392F88E
:102830007E2014F0A6FC0028E0D020680121A03002
:1028400014F0A8F9FF216846FFF768FF0130C0B215
:10285000D5E700BF781B00200D4A536810B51979E1
:10286000022904D84FF4A6513220FDF7EBFF197965
:10287000082902D941F2C141F6E71B79126903F137
:1028800080439268033BBDE8104052F8233018475C
:10289000781B002010B5054C637A2BB10DF006FCB7
:1028A0000CF006FD0023637210BD00BF781B0020F2
:1028B00010B5054C23792BB10DF0F8FB0CF0F8FCAA
:1028C0000023237110BD00BFC822002010B5094CA1
:1028D000FFF7E0FF012263681A7100232268A2F863
:1028E000793182F87B31FFF7E1FD2068BDE81040C7
:1028F00012F061BF781B002008B5044B586801F046
:1029000097FFBDE8084012F0D0B800BF781B002048
:10291000062938B51D469DF8104019D908291BD83D
:1029200002B18CB143689BB912B94378DB0615D468
:102930000B4B5B68186812F0B2FA00B134B92DB9CC
:1029400004F0F8FF00F00104204638BD0120F9E74B
:102950009DF814402C43F7E70024F5E70124F3E742
:10296000781B002038B50D1E04460CBF052003203F
:10297000104405F04FF8094B587270B15DB9033C33
:10298000012C8CBF502455240CF06CFC2046BDE873
:1029900038400DF07FBB4024F6E738BD781B00209F
:1029A000F8B53D4CFFF782FD656801F0A9FE63684C
:1029B0002860186820B940F252413220FDF742FFEA
:1029C00012F04CFA054610B940F25441F5E723687D
:1029D00093F8A6306BB123681A6D93F8A710C3F86B
:1029E000102193F854200A4383F85420002283F8DE
:1029F000A620206890F8A430034493F87C716368A3
:102A000080F878711A7952B11B79012B07D0002117
:102A100012F00AFD18B9BDE8F840FFF757BF236868
:102A20001E4A93F8A530D05C0DF040F9236893F866
:102A3000A420134493F87C61022E2BD004D8012EDD
:102A400005D040F60501B8E7F31E012BF9D801F0D7
:102A500051FE31460DF048F828460DF097FA314600
:102A600001200DF031F97B1E2A4638465942594162
:102A7000FFF778FF626808210023517121722168F5
:102A8000D3801372E37281F89530A372237303230A
:102A90001371F8BD0D20DCE7781B0020004C070007
:102AA000124A10B5536800B931B9184601F0C0FE9A
:102AB000BDE81040FFF70ABF1979082904D841F290
:102AC00090413220FDF7BEFE19790C2902D941F25E
:102AD0009141F6E71B79126903F180435268093B83
:102AE000BDE8104052F82330184700BF781B002083
:102AF00010B50B4C0521206812F096FC30B96068C7
:102B000001F096FEBDE81040FFF7E0BE236801200B
:102B100093F878110DF0E4FA63680B221A7110BD76
:102B2000781B0020054B1A6892F85420920703D0B6
:102B30005B68186801F00EBE58697047781B00206A
:102B400070B5304D06466B681A79032A0BD01A7996
:102B5000042A08D0FFF7E6FF044640B941F2C83125
:102B60003220FDF76FFE186812F078F9F4E72B6851
:102B700093F8543013B941F2CE31F1E776B114F045
:102B800018FF30B16B681A79022A0ED841F24E3123
:102B9000E6E7204614F028FF0028F3D16B681A7985
:102BA000022A17D841F2AE31DAE71A79082A02D997
:102BB00041F24F31D4E71B7920462A6903F1804363
:102BC0001269033B52F8233098470C2812D941F27E
:102BD000E131C5E71A79082A02D941F2AF31BFE7DE
:102BE0001B792A6903F180435269033B52F8233071
:102BF0009847EAE72B69DB68BDE8704053F820305E
:102C0000184700BF781B002038B5FFF78BFF04463C
:102C100020B940F21C513220FDF714FE0B4DFF206D
:102C20002B6893F878110CF05FFF20460DF0AEF999
:102C30002B6893F87831033B012B94BF28200020A8
:102C40000DF008FA6B6807221A7138BD781B002056
:102C500038B5134C0E20236893F878110CF044FF1C
:102C6000FFF760FF054620B940F209513220FDF719
:102C7000E9FD0DF08BF9236893F87831033B012BC4
:102C800094BF282000200DF0E5F923682A46002192
:102C900093F87801FFF766FE636808221A7138BD61
:102CA000781B002010B5074C606801F091FDFFF71C
:102CB000A7FB20680021A03013F06CFFBDE8104096
:102CC000FFF704BE781B002007292DE9F0430646D4
:102CD00087B00F4690464568634C23D11DBB002A40
:102CE00049D1D4E9001091F8543013F0030218BF11
:102CF000012213F00403827103D033785A1E534229
:102D00005341C37191F894304BB12368D3F89000CC
:102D1000503015F0AFFD10B9636801221A7207B088
:102D2000BDE8F0833DB32946707C11F0F6FD072F16
:102D3000814661D1637A63B158B1B8F1000F52D0C6
:102D4000656814F053FA636868715B792372012334
:102D5000A37263685879082855D17168707C15F0A2
:102D60007FFD6268054671680532707C04F0E8FDFD
:102D70006368002859D0236893F8540010F00300CA
:102D80000AD093F84C303946019530466268927902
:102D900000924246FFF7BCFD62682368907193F889
:102DA000540010F0040009D093F84D3039460195D5
:102DB0003046D27900924246FFF7AAFD2B4B656858
:102DC0001B68E8711BB1414630469847287272680B
:102DD0006AB3717C236883F87E10116899679288C2
:102DE000A3F87C2023E0236893F878110129A7D168
:102DF000284604F0E1FD6072637A002BA9D0B9F196
:102E0000000FA6D09CE704AA0DF10F0104F0BCFD51
:102E100020B940F6BA313220FDF714FD04A99DF81F
:102E20000F0015F01DFD0546A5E7D88018726268F1
:102E3000137AB3B9D388003B18BF0123B0680028C8
:102E40003FF46DAF072F7FF46AAF517908293FF443
:102E500066AF002B3FF463AF04F0CCFD0123E372B7
:102E60005DE70123EAE700BF781B0020C8270020A8
:102E70002DE9F84FDFF8C0A0914604468846DAF8FD
:102E800000201F468168807C11F047FD92F8486061
:102E90009AF80930054686F00106002B3AD092F8E0
:102EA00054305B071DD592F84D30D3B192F84EB037
:102EB000BBF1080F23D0584604F020FD3043C6B2C2
:102EC00045B39AF80B303BB314F09AF9002304464B
:102ED0008AF80B3089F8004088F800503E70BDE851
:102EE000F88F636823B1DAF8043093F805B0DFE7B0
:102EF000DAF80430186811F0D2FF0028F3D1CDB110
:102F00009AF80A1031B9A06804F056FD04468AF810
:102F1000090038B90024DDE7A168584604F024FE12
:102F20000446D7E714F062F90828F3D0DAF8043041
:102F30005871CFE72C46CDE7781B00202DE9F043F0
:102F4000874D87B004462E6896F85730002B47D03F
:102F50006F68BB7923B9FA7912B93A7A002A3FD05F
:102F600094F80080B8F1010F72D0B8F1020F00F0B0
:102F7000D380B8F1000F33D196F8542091072FD0A9
:102F80000BB93B7A63B3637813F0100FC3F30017E8
:102F90000CBF012208229A4322D10022A3688DF897
:102FA00014208DF81520002B47D00DF1160305AA2B
:102FB0000DF115012046FFF75BFF2B6893F8416088
:102FC0009DF8143083B92046FFF722FA70B92B68B8
:102FD00093F85530023B012B02D89DF8153083BB86
:102FE000032007B0BDE8F08346F002065FB30DF1A1
:102FF00017004FF00008FFF701FBD5E9003903F196
:1030000042070CF013FD9DF917303246CDF80C80C5
:10301000214602932B7ACDE900033B46484601F056
:103020003BFC0028DCD0A1690120FFF7A5FA0028AD
:10303000D6D02B6883F896803BE0FF268DF81630BB
:10304000D4E7FE26D2E731462046FFF72FFBC7E73D
:1030500096F878216378022A3DD103F01903192BE1
:10306000BED196F854305A0739D40DF11700FFF746
:10307000C5FAD5E9003703F142060CF0D7FC00236E
:10308000FF22214603939DF9173002932B7ACDE955
:1030900000033346384601F0FFFB0028A0D0A169A9
:1030A0000120FFF769FA00289AD02B68012283F8E3
:1030B00096206269002A4ED05178C1F3031183F83B
:1030C00097101178527802F00F0241EA0222A3F819
:1030D0009820022085E703F01803182BC0E76168E9
:1030E00000232046B1FA81F11A464909FFF7A0F9F9
:1030F00000283FF475AFA3692A689B781F2B04D87A
:1031000092F84930002BB0D16AE703F0E003402B7E
:10311000ABD192F84A30F5E796F854309B073FF46C
:103120005FAF637803F01803182B7FF459AF0DF1EC
:103130001700FFF763FA0CF079FC0023FF22214609
:1031400003939DF9173002932B7ACDE9000306F122
:103150004203384663E7FF2283F89720B9E700BFB0
:10316000781B0020014B586801F062BB781B0020DF
:103170002DE9F04F044689B0062900F2C580DFE84A
:1031800011F06000E7000700C300C300C300260081
:103190006E4D0CF015FE2F6897F85430980714D038
:1031A0006E68B3798BB10DF11F00FFF727FA9DF917
:1031B0001F3002222146029330462B7A0193FF23CF
:1031C000009307F1420311F04BFE03201FE05F4D17
:1031D0006E68B379002B00F097802F6897F8542021
:1031E000910717D50DF11F00FFF708FA9DF91F3061
:1031F00030460622029321462B7A0193FF23009347
:1032000007F1420311F02CFE002309202B7309B0B3
:10321000BDE8F08FD30777D5570701D50CF0D0FD67
:103220000DF11F00FFF7EAF99DF91F202B680292AC
:103230002A7A42330192FF220092062221466868D0
:10324000C1E7424D2B6893F85420560737D569687B
:10325000CA79002A33D0426893F85B001678864218
:1032600055D1567893F85C00864250D1967893F801
:103270005D0086424BD1D67893F85E00864246D1F7
:10328000167993F85F00864241D1507993F8602017
:1032900090423CD1627C93F85A00101A424242415B
:1032A00093F8560001284ED0002A4CD193F84E30A6
:1032B000082B02D04A799A4245D00CF081FD6E6805
:1032C000B379002B3DD02F6897F85420930720D571
:1032D0000DF11F00FFF792F99DF91F3030460022D3
:1032E000029321462B7A0193FF23009307F14203B7
:1032F00011F0B6FD012309202B736B68DA79002ADF
:1033000085D19B79002B82D10CF05AFD5DE700221C
:10331000C6E7D60715D5500701D50CF051FD0DF1C4
:103320001F00FFF76BF99DF91F202B6821460292C1
:103330002A7A42330192FF2200920022686811F03B
:103340008FFD0320D9E70A20D7E700BF781B0020B4
:10335000644D81682A68807C11F0DFFA92F854305D
:103360006E68074692F84890590796F806A096F8B6
:1033700007B089F0010940F18E8092F84D30002BA2
:1033800000F0898092F84E60082E00F0868030466A
:1033900004F0B4FA49EA00005FFA80F9002F7ED009
:1033A0003046A16804F0E0FB06462B6893F85420F1
:1033B00093F84180520749D5626893F85B10107802
:1033C00088426ED1507893F85C10884269D1907829
:1033D00093F85D10884264D1D07893F85E108842EB
:1033E0005FD1107993F85F1088425AD1517993F8E0
:1033F0006020914255D1627C93F85A10501A424293
:1034000042416968497908294DD093F84E30591ADC
:103410004B424B41002E48D1B9F1000F47D0204616
:10342000CDE90423FEF7F4FFDDE90423BBF1000F2F
:103430000AD0296891F8561001294ED021B9002AE6
:103440004BD108B1002B4AD10CF0BAFC2B6893F891
:1034500054309B073FF4B9AE0CF0B2FCBAF1000F48
:103460003FF4B3AE2046FEF7D3FFD5F8009000B985
:10347000FEB10DF11F0048EA4608FFF7BFF89DF9BD
:103480001F3002932B7A01935FFA88F30093012295
:1034900009F14203D2E6767976E7002685E73E46D3
:1034A00083E70022ADE70023B4E70120BEE7304602
:1034B000BCE799F85530023B012B3FF686AE002F52
:1034C0003FF483AE0DF11F00FFF798F89DF91F3010
:1034D00002932B7A0193FE23D8E70028B4D00A2068
:1034E00095E600BF781B002030B505468BB0FEF78F
:1034F00087FF2C7828466946294D04F00F0411F007
:103500007FFD2B68072C16D193F87811684611F0CF
:1035100080FD002221466846FFF7D6FB2B6893F812
:103520007831022B32D017D8012B1AD041F2492121
:103530003220FDF787F993F8542012F0060FE8D0F7
:1035400093F8A420134493F87C21012AE1D1962119
:10355000002016F0C1F9DCE7033B012BE6D8072C6D
:1035600019E0062C02D00BD8022C0BD82146684655
:10357000FFF7FEFD0446FFF78DF920460BB030BD86
:10358000072C09D00CF01CFC0324F4E7072CFBD11A
:103590009DF80030012BF7D16846FFF7CFFCE9E733
:1035A000781B002038B5154D2C6894F84830F3B1DD
:1035B0006FF00043D4E920129A4208BFB1F1FF3FF7
:1035C00015D016F021FAD4E92023904299410ED368
:1035D0002B6893F848305BB92D6804F0CFF90446A6
:1035E00016F012FA064BE4FB0301C5E9200138BDD1
:1035F000012004F085FA0028F9D0EDE7781B0020BF
:1036000040420F0070B51E4D06462A6892F87B3185
:1036100092F879015F2B4FEA531100F03F0097BFFA
:10362000184B00245B18DC780CF040FB2B6893F9F6
:1036300058000CF02BFBFEB12B682246996E01203E
:103640000CF0AAFB2B68214693F89630022B14BF8E
:10365000FF2040200CF048FAFFF764FA2B6806467A
:1036600093F8951019B902462046FFF77BF93046CA
:10367000BDE870400CF08ABC22468221DFE700BF23
:10368000781B0020004C0700F7B52C4C0746226839
:1036900092F87B315F2B4FEA531197BF284B0025DF
:1036A0005B18DD78936E13B10120FFF7ABFF236841
:1036B000D3F888000CF09CFC236893F85420910701
:1036C00003D593F89610022905D052070ED593F82A
:1036D0009620012A0AD1042D26D193F85930012BC6
:1036E0000CBF0321042100200CF0FAFCD4E9006394
:1036F00018689A36D7B911F0D2FB63680746186884
:1037000011F0D3FB21680246304691F8963091F8CB
:1037100078110091394611F0CFFC236883F8785175
:103720000023A37203B0F0BD2946DCE711F0C9FB0A
:103730000146304611F0B5FCEFE700BF781B0020D2
:10374000004C070008B50120FFF79EFF024B062240
:103750005B681A7108BD00BF781B002008B5002007
:10376000FFF792FF024B05225B681A7108BD00BF8C
:10377000781B002010B50446FEF7C2FE237A032B07
:103780000AD1194B1B68986E20B14FF41561322095
:10379000FDF758F8FFF736FF237A012B06D003D93F
:1037A000023B012B12D910BDFEF706FE0E4C23681A
:1037B00093F958000CF06AFA2368002283F89520E8
:1037C000FFF7EEF8BDE81040FFF7ECBE064B1B68B4
:1037D00093F895301BB9BDE81040FFF7BFBFBDE8B7
:1037E0001040FFF7AFBF00BF781B002008B5044BA7
:1037F000586800F0EDFFFEF703FE012008BD00BF92
:10380000781B002008B5FEF7FBFD054B002118686A
:10381000A03013F0BFF9BDE80840FFF757B800BF6C
:10382000781B00202DE9F3414C4D00230E4607463E
:103830002A6841F27070116D53720B885381CB6905
:10384000A3F57A74844295BF4FF47A7040F2E24057
:10385000B3FBF0F3B3FBF0F398BF03F550639BB2F7
:1038600013848B8C5384CB8C93844FF47F43D38409
:103870004FF6FF73138517B30121304613F0B9FFDC
:1038800001463078C0092C6894F8483004F11402DD
:10389000FBB111F042F8E0B10B6863618B88287AC4
:1038A000938004F10E0208284AD004F10D0104F0BF
:1038B0006BF888B941F217413220FCF7C3FF694623
:1038C000686913F05EFE6B6969461878C0F3801072
:1038D000D9E700236361E2E72C68637B04F11A08EF
:1038E00043F00203637347B30021304613F081FFB6
:1038F0000368C4F81A308388A8F804302B6893F959
:103900005810186D04F08CF92868154914F02AF93C
:1039100028681449036D2A301A88A0F8092093F802
:103920009630C37214F027F90221286801F074FA66
:10393000FEF7BCFD02B0BDE8F08104F17800D7E7E6
:1039400094F87E306373A36FC4F80E30B4F87C3003
:1039500093800023C4F81A30E383CFE7781B00205C
:10396000774901003349010008B5FEF793FF044B86
:1039700000205969FFF756FFBDE80840FEF73ABD41
:10398000781B00202DE9F04705468AB0FEF738FD88
:103990002B7803F00F03082B05D04FF001084046A9
:1039A0000AB0BDE8F0876946284611F0C7FA9DF8CD
:1039B0000080B8F1000FF0D19DF8013003F003034F
:1039C000032BEAD12D4C266896F84D30002B3BD0C6
:1039D00096F84E70637A002B39D14FF0000906F14A
:1039E000780396F87E2001999DF8110013F0C9FB29
:1039F000B9F1000F01D10028CFD0236893F841908E
:103A000003F1420A96F8483023B1384604F0E6F84C
:103A1000024638BB52469DF812A00299504610F05B
:103A20007CFF134606464A46504613F0AAFBE0B117
:103A300020680121A03013F0ADF8FEF72BFF2946D6
:103A40000120FFF7EFFEAAE763685F79C2E713F092
:103A5000CDFB0828C1D0C31B2072D3F1000949EB6C
:103A60000309BCE74FF00109D5E7002E95D0029974
:103A7000384604F079F80028DAD18EE7781B002068
:103A80002DE9F8436D4F0023064689467869D7F83B
:103A90000080037043700CF095FA054630B900259C
:103AA000032004F0EBFB2846BDE8F8837C69032E75
:103AB000237834D123F00F0343F0030323700C2346
:103AC0006370D8F878307869C0F80930B8F87C307D
:103AD000A0F80D3098F87E1013F067FD002178698A
:103AE00015F007FF3B6893F8482003F1420993F86B
:103AF0004180002A7FD14C46236841467869C0F84E
:103B00000330A388A0F8073013F042FD4C4BD3F8E4
:103B10000C32002B00F084800CF052F9BFE723F048
:103B20002F032222396843EA4913627043F00503E8
:103B300023700B6D1B6AC4F80F300A6D936A180A64
:103B4000E3741B0C2075637592F87E00138E0028B9
:103B50004BD04FF0640CB3FBFCF3A375D36A002881
:103B600046D06420B3FBF0F3E375C3F3072341F2BF
:103B700070702376D369A3F57A7C844595BF4FF4A2
:103B80007A7040F2E240B3FBF0F3B3FBF0F398BF7E
:103B900003F550639BB263761B0AA376938CE3769E
:103BA0001B0A2377D38C63771B0AA377D2F897304D
:103BB000C4F81F3092F89B3094F8242084F8233006
:103BC0000B6D22F01F0293F8A23003F01F03134382
:103BD00084F8243003F0D4FB94F8243003F01F035E
:103BE00043EA401384F824306BE740F2E24CB2E73A
:103BF00040F2E240B6E793F8542052070DD593F80F
:103C00004D2052B193F84E0003F0E8FF044600281F
:103C10003FF471AF4FF001086EE77B685879F3E726
:103C2000052E7FF440AF3B6821681A6DC2F80A1078
:103C3000A188D1811B6D83F8098034E7781B0020AF
:103C400000A0085010B500210320FFF719FF18B994
:103C5000BDE81040FEF73ABE074C0321206811F082
:103C6000E3FB0028F4D0012108460CF039FA636820
:103C700009221A7110BD00BF781B002038B5184DFD
:103C80006B68186811F0EAF8044620B940F26151F7
:103C90003220FCF7D7FD6B680A22002128681A71D0
:103CA00001F0BAF82B6805201A6D237892F8964037
:103CB00004EA531404F001042146FFF7E1FE18B9A9
:103CC000BDE83840FEF702BE0421286811F0ACFBC5
:103CD0000028F5D02B681B6D83F8964038BD00BFD7
:103CE000781B002010B5114C0C220121636820685C
:103CF0001A7101F091F800210520FFF7C1FE18B9F3
:103D0000BDE81040FEF7E2BD0621206811F08CFBF3
:103D10000028F5D02368012093F878110CF0E0F921
:103D2000236801221B6D83F8962010BD781B0020AC
:103D30002DE9F041044690B00D46FEF761FB237873
:103D400003F00F03072B06D00124FFF70BFA2046E0
:103D500010B0BDE8F0812046A14C06A911F050F941
:103D6000206806A99A3011F0C5F923689DF818104B
:103D700093F89620914248D1032D03D193F89720D0
:103D8000FF2A13D09DF8192012073ED50B9993F8FE
:103D900097004A78B0EB121F37D1097802F00F0272
:103DA000B3F8983041EA02229A422ED12A460721DE
:103DB00006A8FEF789FF6368DA880AB91B7A23B37D
:103DC0000023089E8DF814308DF815308DF81630CC
:103DD000F6B10DF1160305AA0DF1150106A8FFF7BE
:103DE00047F823689DF8146093F8415045EA46056A
:103DF000EDB29DF818209DF81580012A9DF8163027
:103E000008D0022A7AD0002A4BD0FFF7ABF914E091
:103E1000FF25EEE79DF81900226800F0090792F8E7
:103E20009A10092F02D041B1070706D592F8542005
:103E3000500704D463689B799BB9012459E06268F8
:103E4000D279002AF6D0324606A8FEF7F1FA002809
:103E5000F0D02068A03012F0BFFE0028EAD00C2479
:103E600047E0236893F854309A07E6D09DF819305C
:103E70009B0700F1BC80FF2106A8FEF717FCDCE7DA
:103E800006A8FEF7C5FA002840F0B480236893F82E
:103E90005530023B012BD0D8B8F1000FCDD0FE2118
:103EA000EAE7236893F854309F07C6D09DF819308D
:103EB000980721D56EB906A8FEF7AAFA48B9236873
:103EC00093F85530023B012BB7D8B8F1000FB4D0AE
:103ED000FE2563681B7A33B1424B1B681BB10D98FA
:103EE00008B10F999847294606A8FEF717FC441C0D
:103EF000E4B2FEF7CFFC2AE7FF25EAE7226892F852
:103F00005420910799D061688979002995D09DF84E
:103F1000197007F0090109298FD1920707F00207EC
:103F200062D5002F38D026B30DF11700FEF766FBDF
:103F300000210320FFF7A4FD0646D4E9003803F171
:103F400042070BF073FD01232A4606A903939DF94E
:103F500017300293237ACDE900033B46404600F038
:103F60009BFC76B900283FF468AF606800F030FC35
:103F700063E7002B8AD006A8FEF74AFA0028D3D1BF
:103F800084E700283FF459AF2068A03012F024FEE7
:103F90000028EAD00B24ACE70DF11700FEF72EFB4A
:103FA00039460320FFF76CFD0646D4E9003803F1DB
:103FB00042070BF03BFD01232A4606A903939DF916
:103FC00017300293237ACDE900033B46404600F0C8
:103FD00063FC0EB10028D7D1606800F029FC2CE703
:103FE000781B0020C4270020002F3FF444AF002E90
:103FF0003FF446AF29463FE7036D10B5044623B9A9
:1040000040F261313220FCF71DFC02220749427266
:104010001B884381FF2380F827304FF6FF73038509
:1040200013F0A0FD0023236510BD00BF77490100F8
:10403000F8B5194F064603F027F9012178610020F1
:10404000FDF742F8054620B940F691013220FCF711
:10405000F9FB4FF4C072002116F052F90121084615
:10406000FDF732F8044620B14FF4C072002116F07B
:1040700047F93B6913B940F69B01E7E7304610F07A
:1040800057FD284611F03EFA24B12046BDE8F8401D
:1040900011F038BAF8BD00BF781B0020014B024A6E
:1040A0001A617047781B002024420000036810B595
:1040B00023B940F67F113220FCF7C4FB044A136099
:1040C0006C3353601369BDE810401B68184700BF8C
:1040D000781B002008B5044B586800F0A9FBBDE828
:1040E0000840FEF7F3BB00BF781B002038B504463C
:1040F00090F8400000F0FD0004F14201003818BFC4
:10410000012084F8410003F0E5FA94F84030023BC6
:10411000DBB2012B94BF0123002384F8483015D86B
:1041200003F02CFC054615F06FFC094BE5FB030181
:1041300094F84830C4E9200143B1002003F0E0FCCA
:1041400020B940F629213220FCF77CFB38BD00BFA6
:1041500040420F000149363013F007BD55490100B8
:1041600010B5084C0222636820681A7100F022FD25
:1041700038B9206810F03CFE2068BDE8104011F00E
:104180001ABB10BD781B002059280000412B0000ED
:10419000A12A00005D4B0100BD2400006939000028
:1041A000092C0000512C0000CB4A0100B94A010043
:1041B000AB4A0100F9280000A52C000005380000DA
:1041C000F5230000CD28000061410000A129000076
:1041D000494901005D3700004537000049490100A9
:1041E00049490100453C00007D3C0000F12A0000E7
:1041F000E53C0000E934000021260000154B0100D9
:104200000F4B0100E927000085390000FD4A01003D
:10421000EF4A0100E14A0100E14A0100ED370000E8
:10422000A14A01007537000098410000A841000034
:10423000C0410000F44100000C420000013808B504
:10424000C0B20A4B41B1032801D8185C08BD4FF435
:10425000E9713320FCF7F6FA032802D803441879F1
:10426000F4E740F211310620F4E700BF064C0700E6
:1042700008B510F02AFA054AD2E84F3F0133DBB205
:10428000C2E8413F0029F7D108BD00BF901B0020C4
:10429000024BA0F108015868FFF7EABF901B00200D
:1042A0002DE9F84F1E463C4B0D46934600211A78E7
:1042B00004689DF828709DF82C809DF930909DF839
:1042C00034A0016032B9A4F108015868BDE8F84F84
:1042D000FFF7CEBF1A2204F1090016F011F80123EE
:1042E000A372BBF1060F4FD8DFE80BF00433394E51
:1042F000434E3D00E37A23F0130343F01303E372CC
:10430000012304F10E0241462846237547F6FF7348
:1043100084F81890E38204F10D0310F073FDE37A42
:104320005B0736D5BA1E04F11C03012A8BBFAA68AD
:1043300032681168E2618ABFE161B28892889A802E
:10434000E7760023237215492046BDE8F84F13F0A5
:104350000CBCE37A23F0150343F01503CFE7E37AAF
:1043600043F01003CBE7E37A23F0120343F0120388
:10437000C5E7E27A4AF01A0A22F01B020AF01B0A89
:1043800042EA0A02E272BBE740F244413320FCF702
:1043900059FAFF23E376D4E7901B0020A1430000E5
:1043A0002DE9F04F05468DB00C4600200121FCF7A9
:1043B000C7FE064620B94FF4F0713320FCF742FAED
:1043C000A83011F024F818B196F85430042B2ED1EF
:1043D000304610F0A2FB50BBB64C04F1080604F1C5
:1043E0000C07AB6A93B92846FFF752FF4FF40073EE
:1043F000ADF804309DF80430002063F307009DF809
:10440000053063F30F200DB0BDE8F08FA96A0B688B
:10441000B142AB624FF000030B704B708B70CB70EE
:10442000DFD0B942DDD06068FFF722FFD9E7AF6A7D
:1044300037B3A14B9F4226D0043B9F4223D007F1C4
:104440003B0A4FF0000802F02DFF8146B8F1000F43
:1044500040F0008102A9504610F0D2FDB9F1000FE2
:1044600016D004F10D00EE7A16F0100613D09DF868
:104470001860059932460EF0C1FD4FF0010828E0A2
:1044800005F1330ADDE74FF001084FF0000ADAE7E3
:1044900004F11C00E7E7002FEFD09DF80830022B55
:1044A000EBD0014695F83230E522504613F005FA7C
:1044B00095F8323006460344504685F8323013F002
:1044C000F4F995F83280A8EB0000D0F1000848EB31
:1044D0000008B9F1000F00F0C180EB7AD90604D4CE
:1044E0005B216AE7C8460026F7E713F0040FAA7AB3
:1044F00095F80DE004F1060005F10E0C30D0E97ED0
:10450000FE292DD11123E27084F805E023701301F8
:104510000233637001232371D5F80E30C4F80630DE
:10452000BCF8043083802173EB69C4F80D302B8C08
:10453000A4F811302B7EE3745E4E06F1080A57454D
:104540003BD12379022205F1280062F3461323713F
:1045500010F074FC02272846FFF79AFE04263FE07D
:1045600006F10A030321E27053432170023384F8F9
:1045700005E06370D5F80E30C4F80630BCF804309E
:104580008380267326442B7E7373EA7A12F0080028
:1045900002D004232371CFE702F00303032B01D1E0
:1045A0002071C9E7520701D50123F3E7022BF1D0AF
:1045B0000BB92171C0E7A221FFE606F10C094F45B6
:1045C00015D105F1280010F039FC6A7D6AB923790C
:1045D000042662F34613237102272846FFF758FE8C
:1045E0008DF804608DF8057004E70026F4E747B302
:1045F000B8F1000F20D005F12808404610F01EFC4D
:1046000039467068FFF734FEAB6A0022534585F8DF
:10461000322096D04B4505D12379404662F34613AC
:10462000237195E79DF80830022B05D1237923F0FB
:1046300068030127237191E72379012262F346136E
:10464000F7E7EE7A16F01006CAD0237967F346131F
:1046500023717FE700287FF445AF0646042305F168
:104660002301237006F11803AA7A5343E270221D36
:104670000233637005F10B0353F8040B8B4242F8CD
:10468000040BF9D195F814A095F815B002F048FE86
:10469000C1F3402950464946FFF7D0FD6073BBF196
:1046A000000F04D049465846FFF7C8FDA073E676D0
:1046B00042E700BF901B00209C1B0020343270B5E5
:1046C000054692B20C461E460FF0C7FF25B1034ABD
:1046D000556014745674147070BD00BF901B002098
:1046E00010B5034C60680FF0DAFF237C237010BD17
:1046F000901B0020014B587C704700BF901B00208E
:1047000038B5134D68680FF0D0FF044620B940F269
:1047100055113320FCF796F8D5E84F3F013BDBB24B
:10472000C5E8413F0029F7D104F1080334221846B7
:1047300015F0E6FD47F6FF720121E462E283FF22F5
:10474000627584F82320E27C61F34612E27438BD7E
:10475000901B002038B5436A044693B90A4D686837
:104760000FF0A3FF606220B94FF4B7713320FCF75C
:1047700069F8D5E84F3F013BDBB2C5E8423F002A6C
:10478000F7D1606A3B3038BD901B0020036810B53C
:1047900004468BB19A6A22B140F28B113320FCF7A8
:1047A00051F8596A41B101F108008342074B08BF33
:1047B00022605868FFF75CFD216831B1034B08396E
:1047C0005868FFF755FD0023236010BD901B0020A3
:1047D00038B5046805469CB11349204613F0CEF95C
:1047E000124B00221A735A739A73DA73EFF3108222
:1047F00072B6A16A0C3399B9A362E36202B962B6D8
:104800002C68616A49B101F108039C4203D0074B4F
:104810005868FFF72DFD0023636200232B6038BD2D
:10482000E16A0B60E9E700BFA1430000901B002094
:1048300070B50668044656B3716A154D41B101F171
:1048400008039E4202D06868FFF712FD00237362DE
:1048500021684E7DB6B100232B726B72AB72EB7286
:10486000EFF3108272B6886A0A4B40B98B62CB6252
:1048700002B962B62046BDE87040FFF7A9BFC86A1A
:104880000360F4E708396868FFF7F2FC266070BD42
:10489000901B0020981B00202DE9F04704689146EA
:1048A00006460D469A469DF820209DF82C8024B996
:1048B00040F239313320FBF7C5FF664F3B78B3B97F
:1048C000B8F1020F0DD009D9B8F1030F0CD033683D
:1048D000002B00F08A8040F25631EBE7FFF756FFDD
:1048E000F5E7FFF775FFF2E7FFF7A2FFEFE7636A6F
:1048F0000BB94021DEE783F81180CB687BB1097CDE
:10490000238E0B4440F272618B4207DDFFF790FF6C
:104910003368002B69D040F27331CBE72386012343
:10492000A3729DF928302376B8F1000F60D122756B
:104930006B691BB15B78C3F30313A375EB6913B108
:104940005B88A4F819302A78511E4B424B41E17A1A
:1049500063F30001C1F34003022A08BF43F00103DF
:1049600063F34101C1F34003002A14BF002303F0A5
:10497000010363F3C301AB68E1721BB1CBB243F037
:104980000403E3722B6A13B193F90030E3756B688B
:1049900043B104F10D0304F10E029DF824102846E2
:1049A00010F030FAAB688BB1A9F1020104F11C02DE
:1049B000012995BFDAF800301968E361E16194BF1D
:1049C000BAF804309B88938084F81B90A969B8F1E9
:1049D000000F0FD179B38B784A7803F01F0352EAA6
:1049E000032228D13046FFF7D1FE0020BDE8F08732
:1049F00062759DE70022636A1A705A709A70DA70C5
:104A0000A26AEAB9A362E36289B14A78897801F0BF
:104A10001F0152EA01220AD1A16A3A727A72BA726D
:104A2000FA720D4A79B9A2620023E26233600B493F
:104A3000204613F0A3F8636A3BB94FF4D77139E706
:104A4000E26A1360DFE71A60EEE700230120636289
:104A5000CCE700BF901B0020981B0020A143000062
:104A600010B504460246064900F58C7015F006F9AB
:104A7000224604F5A4700249BDE8104015F0FEB8C6
:104A80003155010010B590F854308A1E012BD2B276
:104A900005D1022A2CD8184B33F8120010BD032977
:104AA0001DD002291FD14FF4E1700024124B03EBFB
:104AB0004403DB8803390344012903F196038CBFC7
:104AC00000202820022A4FEA400094BF0B4940F6FC
:104AD0004802184498BF31F812201044DEE740F233
:104AE00064600124E2E740F2E6204FF4B073E1E7AE
:104AF00040F64800D2E700BF0E4C07000E4C0700FE
:104B0000014B1870704700BF710000207FB590F80E
:104B1000143103F0FF0223B140F2A5212120FBF75D
:104B200091FE0C78039214F0010318BF8D68CDE953
:104B3000012218BF0195A60707D504ADCE6805EB85
:104B400083050133DBB245F80C6C65072BD504AD4A
:104B50000E6905EB83050133DBB245F80C6C013BB4
:104B6000134D80F845314B68C0F8C830C0F8F830B4
:104B700040F27123A0F8FC30002315F8011B0C4211
:104B80000BD004A900EB820601EB8201013251F83F
:104B90000C1CD2B22B39C6F8CC100133DBB2032B7C
:104BA000EBD104B070BD002BD9D140F2BE21B5E7E6
:104BB0001A4C070090F87B315F2B4FEA53112DE917
:104BC000F04F044689B000F2A9808F4A0A4492F857
:104BD0000F80B8F1040F04D100224FF0030880F8D1
:104BE000702194F9792103F01F0394F87A91002A37
:104BF00049EA032994F87931B4BF4FF496721E2222
:104C0000DB0902FB09F90CBF4FF01E0B4FF4967B3A
:104C10000AF012FFA9EB00060AF050FF94F8793170
:104C2000074606EB0B0A13F0400F4F440CBF4FF43E
:104C3000FA75322511F0DFFF744B0544B6F5837F1A
:104C40000AFB05F505F5742505F23F25B5FBF3F5DF
:104C50006FD394F8153103F0FF02002B61D1404669
:104C600001920BF083FB6A4B4FF47A7A53F8289049
:104C700009F52243B133B3FBFAF6BA365E4406EBCC
:104C80004506064440460BF071FB009040460BF091
:104C900075FB414683462046FFF7F4FE00F18C0881
:104CA000009BA9EB0B09B044019AA8EB030804236D
:104CB0008DF808208DF81130D4E92C32B9FBFAF9BF
:104CC000933BA8EB090842F1FF32DB19CDF80C80C9
:104CD00042F100025B1B62F10002CDE906324D4B4E
:104CE0001878FE2803D094F854305A0701D414F0F1
:104CF0004CFF8DF8100002A904F58C70C4F8D88020
:104D0000C4F84061DDE90623C4E92E230DF04CFB15
:104D100038B940F2EE612120FBF794FD4FF0000816
:104D20005FE70BF0A9F80DF02BFB012009B0BDE8FF
:104D3000F08F40464FF47A7A0BF018FB344B53F85F
:104D4000289009F2E736B6FBFAF620365E443E4478
:104D50002E44064440460BF009FB009040460BF001
:104D60000DFB834641462046FFF78CFEA9EB0B095D
:104D700000F18C03009AD4F8D8803344B9FBFAF9D7
:104D80009B1AA3EB090AD0452BD2224B93F8009033
:104D9000B9F1FE0F03D094F854305B0702D414F03D
:104DA000F4FE8146484614F094FEAAEB08034946F7
:104DB000192B38BF1923834228BF0346184698464B
:104DC00014F0B1FE0028B1D014F022FED4F8D8308F
:104DD00008EB0300C4F8D8008238C4F8E00014F0EF
:104DE00015FE94F84431103F02A802948DF8183053
:104DF00002237F1B03968DF81030002305978DF852
:104E00001930FFF753F990E70E4C070040420F00AE
:104E1000F04E07007100002001292DE9F3470646F6
:104E200005D9022900F0A08040F6420150E001F0CF
:104E30000104D0E92CA70AF01DFE96F8788181467E
:104E40002046414612F058FA054640460BF096FAC5
:104E50000246002C3FD0A8F10203DBB2022B3AD865
:104E6000574901EB43035B8A15EB09052CBF012170
:104E7000002115EB0A0547EB0107524951F82800BC
:104E800000F2E73010444FF47A72B0FBF2F02D1AC2
:104E900067F10007ED1847F1000713F011FD4630E8
:104EA000D6F810812C1AD8F81C9067F1000504F090
:104EB00013FA06F1E803834210D04A46CDE90045D3
:104EC000D8E9740113F00AFD81451DD240F2613129
:104ED0002120FBF7B7FC4FF4FC73C5E798F87D0081
:104EE00090B1D6E93A7A04F04FFA30B9B8F9F43112
:104EF000A8F8F401DF194AEBE37A4A4638465146EE
:104F0000CDE9004513F0EAFC2F4B1A68D6F81031B2
:104F1000824293F87E100BD9DE693218DE6279B9CD
:104F200041F66A018842198616D340F2D271CFE762
:104F300049B16422B0FBF2F151430246401AD962F2
:104F40004FF4FA71EEE740F2E242B0FBF2F1514366
:104F50000246D962401AE3E7121945F10005C3E998
:104F6000742502B0BDE8F087D0F8103113B940F2D3
:104F7000DD71ADE7002583F88C5090F8781183F847
:104F8000741083F87510FF2483F876400339D0F845
:104F90001001012900F13C008CBF0021012112F019
:104FA000A9FED6F8100114F0EFFAC6F8105186F8F1
:104FB00016410AF061FF02B0BDE8F0470DF0E0B91C
:104FC0000E4C0700044F0700A41B002008B50B4B34
:104FD00030B101280DD040F655012120FBF732FCFD
:104FE00018601A6841F669039A4206D940F65E01D4
:104FF000F3E740F6C4121A60F3E708BDA41B0020D3
:105000002DE9F04F04468FB01E468B460392BDF843
:10501000608014F0F9FC81462046049110F006F9F6
:10502000D4F8CCA00546002E00F02682002800F01F
:105030004482204610F070FA039B80F00106F6B21D
:10504000002B00F0188119F5FA630593049B43F1D6
:105050000003069304F08CF904F044F9074604F1C8
:10506000E8003946079004F00FF9D4F8101111B197
:10507000079810F020FA1FB1B7F92420A4F80C21EA
:10508000B5B1D4F8F050B7B1B868059BD7E90021A5
:1050900000938018069B2A4641F10001019313F00A
:1050A0001DFC854208D240F24D312120FBF7CAFB9E
:1050B000D4F8C850E7E73846079004F05FF9059B3D
:1050C0000798D4F8C8C0C518069B43F10007B8F18B
:1050D000000F00F0CB801FFA88F842F210732946C7
:1050E0003A46E8FB03120CF2CF730344B3FBFCF324
:1050F0000CFB03F3EB1A67F10000C4E93A3001231B
:10510000C4E92A124FF0000804EB08022046069377
:1051100092F87C1110F04DF80590069BD4E92A21F5
:10512000521B61EB0701012A71F100004FF00000F2
:10513000C0F292819245884100DB924604EB8808D8
:10514000D8F8CC20524594BFC4F8DC20C4F8DCA0C9
:1051500026BB1BB35900B4F90C0189B212F05CFEF6
:10516000B4F80C21D4F810314FEAE07C121A12B2D4
:10517000A4F80C2143B1A3F8F421D3E97421121847
:105180004CEB0101C3E97421D4E93A322D184CEB00
:1051900007071B184CEB0202C4E93A32039B2BB100
:1051A000D4E93A23C4E92C57C4E93023059B2A46A5
:1051B0002046C4F8D8300423C4E92E578BF80930B0
:1051C0003B4610F049F8059B8BF80800CBF80430FB
:1051D000002E00F04C81012304998BF80030D4E9B3
:1051E0002A32B3EB090362EB0102012B72F10001D9
:1051F0004FF00001C0F23281B34F9F42914100DB7A
:105200001F46D4F81031D4F8C880002B40F02B8111
:1052100007262046A8FB065610F008F8002800F0E4
:105220001F81D4E92C32ED1846EB0206A945049BF8
:10523000B3410FD2B5EB0905049B66EB03066FF093
:105240000103AB424FF00003B34102D3AF4228BF8A
:105250002F46B846CBF81080D4F8DC00059B984266
:1052600034BF002001200FB0BDE8F08F4FF0FF31B8
:105270006FF0004237E7002E39D06FF00043D4E9D9
:105280002A129A4208BFB1F1FF3F2BD094F8443163
:105290002046234493F87C110FF08BFF039B19F1F8
:1052A000AB0205468DF82030049B099008A843F115
:1052B0000003CDE90C2340F20243ADF8283014F08E
:1052C000E3FC10B940F29641EFE6D4E92A320C999A
:1052D0005B1A0D9962EB01025B1B62F10003002B6C
:1052E000C0F2B3804D46049F012600230AE7D4E9AB
:1052F0003A37D4F8C8500026A9EB03025919B2FB7B
:10530000F5F205FB02F247F100075218A2EB090182
:1053100047F10007AA290DD8D4F8B810C91AB1FB73
:10532000F5F105FB0133D31AB3FBF5F3AD1847F1E3
:105330000007E7E694F87C1120460FF03AFF0423BB
:10534000D4F8B8208DF82930D4F8C85009902046F8
:105350008DF82060D4E93A13521AB2FBF5F26A4391
:10536000521843F10003CDE90C230FF075FF2946D5
:105370008DF8280008A811F05BFF0346DDE90C5703
:10538000C0E651F8042F013302F12B0CBC459FBF3E
:10539000821A08F10108BF185FFA88F8DAB2964558
:1053A000EFD804EB0803204693F87C110FF001FFBF
:1053B000384404EB8803D3F8CC30834209D3A3EB01
:1053C000070ABAF1000F24DA40F24E416DE62F468B
:1053D0006AE094F84511D4F8C820414511D908F184
:1053E000010895425FFA88F808D204EB8803D3F8E5
:1053F000CC3003F12B029A461546E2E74FF4856163
:1054000053E69542F7D352009542F4D340F245411A
:105410004BE6AD19059B20464FF0000643F100070F
:10542000D4E92C230FF09CFED4F8C8305843D4E9BB
:105430003A321B18204642F10002C4E93A323B4698
:105440002A460FF08DFE03465EE6039B4D46049F01
:1054500001269A46984657E682466FE60F46D0E602
:10546000D4E93032DFE64FF0FF352E46DEE68BF82A
:105470000060CBE90457EFE6039B002B7FF4E3AD1C
:10548000D4F8C87009F1AB05D4E93A23A9EB0206B8
:10549000B6FBF7F67E43B618A5EB060543F100030D
:1054A000AF42059393D8EF1B002394F845E104F134
:1054B000C8016FF02A00984670E7039B002B3FF469
:1054C00016AF2E46BFE500BF0040420F0138C0B204
:1054D000032808B504D940F211310620FBF7B2F9D0
:1054E000014B185C08BD00BF2A4C07000138C0B250
:1054F000032808B504D940F211310620FBF7A2F9C0
:10550000014B185C08BD00BF474C07000138C0B212
:10551000032808B504D940F211310620FBF792F9AF
:10552000014B185C08BD00BFA84C07000138C0B291
:10553000032808B504D940F211310620FBF782F99F
:10554000014B185C08BD00BFA54D0700014B186852
:10555000704700BF581C002008B5034610465A1E6D
:10556000032A10D84A1E032A0DD8084A012951706F
:105570000CBF00210A211071937091721946FBF73C
:10558000E9FF002008BD6FF01500FBE71E010020B9
:10559000074B5A8A38B142F01002987A5A82DA8A56
:1055A0009A839877704722F0100298835A82F8E71E
:1055B0001E01002010B4094C637A60B143F004036B
:1055C0000029637210460CBF0023072363715DF846
:1055D000044BFFF7DDBF03F0FB03F1E71E010020E2
:1055E00040EA4100014BD870704700BF1E01002007
:1055F00010B5044610F023F908B9002010BDE043AF
:1056000010F01DF90028F8D0E31683EAA4635A1EAF
:105610001A42F2D0E3B25A1E13405A1E1342ECD083
:10562000A0B212F04DFC0B28E7D8204612F044FC43
:105630001828E2D8A3B2B3EB144F04D184EA1423A0
:1056400013F0FF1FD9D0044B6340581E1840003898
:1056500018BF0120D2E700BFD6BE898EF0B5070C77
:10566000164BA7F5AA4203EA9023543A012A20D9FF
:1056700027F4004042F6AA22801A18BF0120002217
:1056800016211F24164687EA060562EA050501353C
:1056900011D0DD0301394FEA5303ADB245EA560696
:1056A0004FEAC4354FEA5404ADB245EA5202EAD19A
:1056B000F0BD0020E3E70020FAE700BFE0FF3F0075
:1056C000F8B50D46074640F67A4CBDF81860A81F9D
:1056D000BDF81C1080B2604515D8941FA4B2644573
:1056E0008CBF0020012087B9194C247984B188B976
:1056F0006FF45067EC19062C04D86FF45064141939
:10570000062C07D9F8BD0020EDE797F87D40EDE7BE
:105710000028F7D0954218D803FB0111B1F5FA7FA4
:1057200013DCA6F10A0340F676409BB283420CD804
:10573000104610F06FF942F2107341435E43B6EB2E
:10574000410F8CBF01200020DCE70020DAE700BF1A
:10575000601C0020304BF0B5B0F868700C46114664
:105760001A88B0F8666085B097425D8828BF1746F2
:10577000964228BF16461B2E2ED0B5F5A47F2DD0FD
:1057800040F6480301AA9D4228BF1D4610F063F968
:10579000BDF80A30BB4228BF3B46E380BDF80C3061
:1057A000AB4228BF2B462381BDF80630B34228BF49
:1057B00033466380BDF80830AB4228BF2B46A38038
:1057C000FF232370E3881B3B9BB2E02B08D940F2F8
:1057D000E7613920FBF736F81B2FCED105B0F0BDBD
:1057E00063881B3B9BB2E02B02D940F2E961F0E7F2
:1057F000238940F64812A3F5A4739BB2934202D9C1
:1058000040F2EB61E5E7A388A3F5A4739BB2934252
:10581000E4D940F2ED61DCE7601C0020F0B50278CD
:105820000346DFF894C001F108060A7000254278AB
:1058300040F2712E4A7082788A70D0F80320C1F845
:105840000320B0F80720A1F80720427A4A72940793
:105850009CF8200001F1220481F8490002F00100C7
:1058600048BF0130520744BF0130C0B2EAB2904293
:1058700007D89CF8393081F84830002381F84A3045
:10588000F0BD03EB0512013557890EFB07F746F80B
:10589000047F97890EFB07F7F760D78924F8027F0A
:1058A000178AE780578AA781978A6782D78A2783D2
:1058B000128BE283DAE700BF601C0020F7B50023FB
:1058C00004460E461746CDE900336846FBF772FCE6
:1058D00008B1002016E0009DA542F6D03046EB1C32
:1058E00010F092F83946AA7811F04BFC0028ECD061
:1058F00005F10A036A7A04F10A01607A11F041FCA9
:105900000028E2D003B0F0BD054A516A02F11D0340
:10591000127F11F8030BC0F3801011F032BC00BFEE
:10592000E021002001281ED8022B0DD1A2F57A70AB
:105930000F4B984219D8A1F57A70984215D88A422F
:105940008CBF1220002070470A4882420DD8012BDC
:105950000CBF40F2527340F6C3139A4205D9A1F628
:10596000C410054BE9E7122070473020704700BF94
:10597000A7F970028FFD7002CBF3700210B50446D8
:105980000A480FF004FA0A492046FFF7BFF82046FC
:105990000FF024F938B12046FEF7A8FB20460FF09F
:1059A000F3F9002010BD1220FCE700BF7C1C002092
:1059B000841C00202DE9F04F9A4685B0754B0446B3
:1059C0000DF10809744F186888461B791646029035
:1059D00089F8043097F8563013B1484602F0E0F9E0
:1059E0006E4D0021204602F09DF9AB68A4F80080BE
:1059F000E36396F84A2006EB4202B2F82AB0584612
:105A000010F008F801466FF4506000238344BBF1A6
:105A1000060F6BD9908C4FF0961284F87E30238756
:105A2000626340F2E2420FF0F5FF03F0B3FC40F294
:105A3000E2430146A4F8E4312046E161C4F8E011F4
:105A400013F08DFD834601F06BFC8306297C53BF68
:105A50001B236B88AA881A46A4F86630504BA4F81A
:105A600068201B6884F84410A4F846B01BB194F970
:105A70007C10404698473B79003B18BF012384F8CF
:105A80007D30484B1B6813B1474920889847012354
:105A90006386464B1B6813B1454920889847454BA0
:105AA0001B6813B1444920889847444B1B680BB1CD
:105AB00020889847424B1B680BB120889847AB88D9
:105AC00004F114006A8869780333033201919BB2B0
:105AD000297892B2009104F11801FBF7A3FB6369E6
:105AE00073B941F2C4113920FAF7ACFE4FF04D12F0
:105AF00023870123626384F87E304FF47A7399E739
:105B0000A36913B941F2C511EDE70FF05DFF206203
:105B1000BAF1000F04D002F07FFC20F07F40A062B9
:105B200096F84A302046E96806EB4306338EA38494
:105B3000F38EE38413F010FD494604F1960011F052
:105B400072FC97F8563013B9FF2384F83532BB6DD9
:105B500023B1012204F59571204698471949204642
:105B600011F0B5FB02F058FC0C230121B0FBF3F25D
:105B700002FB1300C0B2431DDBB2082B9CBF0D30EB
:105B8000C3B2204684F8A23002F0CCF805B0BDE8DC
:105B9000F08F00BF5C320800601C00201C21002038
:105BA000E0270020D4270020681C0020F4270020D4
:105BB0009A1C0020E4270020A41C0020E8270020D5
:105BC000EC2700203A21002010B503210020FBF72C
:105BD000B7FA044670B90321FBF776FA044620B9F8
:105BE0004FF459713920FAF72DFE034B93F95C10ED
:105BF00013F051F9204610BD601C00202DE9F04F34
:105C000087B007468846008804A911F0A6FB06461F
:105C100000287CD1059D95F87D31002B6DD0B8F121
:105C2000020918BF4FF0010995F88E30272B95F81F
:105C3000E13043EAD3030CBF89F0010A4FF0000AB8
:105C4000D90702D4BAF1000F63D0B8789DF810409C
:105C500008B901F06FFB8DF80B00F87808B901F076
:105C600069FB2E4B8DF80C00D3F800B0BBF1000F90
:105C70000BD00AF0010320460DF10B0229460093D8
:105C800003ABD847044600283AD19DF80B20B2B3A5
:105C90009DF80C309BB3164695F87D2032B1B207C3
:105CA00003F0020337D5B3B302231E46FF2285F863
